:08098E0002080000020A00004B
:10097C00758901C28DD28C758AA4758CFFD2A9D2CF
:02098C00AF2298
:07099700AE071FEE70FA220B
:1009320012097C20B1FD7F0A12099720B1F5E50B5F
:10094200450A7007F50A750B0A802AE50B640A4509
:100952000A7007F50A750B32801BE50B6432450AF3
:100962007007F50A750B5A800CE50B645A450A703C
:0A09720004F50AF50B20B1BB80FB71
:03000B000208E107
:1008E100C0E0C0F0C0D075D000C000C004C005C0D9
:1008F10006C007758AA4758CFF0509E50970020514
:1009010008AE08FF7C007D6512088C8C088D09D328
:10091100E509950BE508950A4004D2A08002C2A022
:10092100D007D006D005D004D000D0D0D0F0D0E090
:010931003293
:03000000020800F3
:0C080000787FE4F6D8FD75810B020847F4
:10088C00BC000BBE0029EF8DF084FFADF022E4CC50
:10089C00F875F008EF2FFFEE33FEEC33FCEE9DEC19
:1008AC00984005FCEE9DFE0FD5F0E9E4CEFD22ED5F
:1008BC00F8F5F0EE8420D21CFEADF075F008EF2FA9
:1008CC00FFED33FD4007985006D5F0F222C398FD9A
:0508DC000FD5F0EA2237
:10080C00020932E493A3F8E493A34003F68001F2C7
:10081C0008DFF48029E493A3F85407240CC8C333ED
:10082C00C4540F4420C8834004F456800146F6DFBC
:10083C00E4800B010204081020408090098EE47EB5
:10084C00019360BCA3FF543F30E509541FFEE493B1
:10085C00A360010ECF54C025E060A840B8E493A378
:10086C00FAE493A3F8E493A3C8C582C8CAC583CAA3
:10087C00F0A3C8C582C8CAC583CADFE9DEE780BE5B
:010996000060
:00000001FF
