:03094C00011A018C
:1008F9007D027C007F0112088CE4FDFC7F02120856
:100909008C7D027C007F0312088C7D027C007F04B1
:1009190012088C7D107C007F0512088C7D107C00EC
:100929007F0612088CE51A75F00A84FD7C007F07A2
:1009390012088CE51A75F00A84E5F0FD7C007F0841
:0309490002088C15
:0F0990008F1BAF1B151BEF60051208F980F422B7
:10096400051AD3E51A940C748094804003751A0117
:070974007F6412099080E985
:10094F0012083F065B4F666D7D077F6F777C395EC0
:04095F0079714080EA
:10097B00EF1FAC0670011E4C600A7D027CEFDCFEA3
:04098B00DDFC80EC23
:01098F002245
:10088C00EF14B4080050549008A175F003A4C5836C
:10089C0025F0C583730208E10208D90208D10208C9
:1008AC00C90208C50208C10208BD0208B9C2A48069
:1008BC000EC2A48012C2A48016C2A4801AD2A4C2F2
:1008CC00A3C2A28016D2A4C2A3D2A2800ED2A4D25A
:1008DC00A3C2A28006D2A4D2A3D2A274082DF8E699
:0D08EC00F5807F017E0012097BE4F580227B
:03000000020800F3
:0C080000787FE4F6D8FD75811B020847E4
:10080C00020964E493A3F8E493A34003F68001F295
:10081C0008DFF48029E493A3F85407240CC8C333ED
:10082C00C4540F4420C8834004F456800146F6DFBC
:10083C00E4800B010204081020408090094CE47EF7
:10084C00019360BCA3FF543F30E509541FFEE493B1
:10085C00A360010ECF54C025E060A840B8E493A378
:10086C00FAE493A3F8E493A3C8C582C8CAC583CAA3
:10087C00F0A3C8C582C8CAC583CADFE9DEE780BE5B
:010963000093
:00000001FF
