:03093800010800B3
:07092C00AE071FEE70FA2276
:1008000020B1237F6412092C20B11BAF087E00EFBA
:100810007007C2A0750801800AEF64014E7004D20F
:10082000A0F50830B1FD20B0237F6412092C20B060
:100830001BAF087E00EF7007C2A1750802800AEFA7
:1008400064024E7004D2A1F50830B0FD20B2277FBB
:100850006412092C20B21FAF087E00EF64017009FA
:10086000C2A230B2FDD2A2800DEF64024E7007C268
:10087000A430B2FDD2A420B3267F6412092C20B389
:100880001EAF087E00EF64017008C2A330B3FDD232
:10089000A322EF64024E7007C2A530B3FDD2A52299
:0509330012080080FB2A
:030000000208A053
:0C08A000787FE4F6D8FD7581080208E7B7
:1008AC00020933E493A3F8E493A34003F68001F226
:1008BC0008DFF48029E493A3F85407240CC8C3334D
:1008CC00C4540F4420C8834004F456800146F6DF1C
:1008DC00E4800B0102040810204080900938E47E6B
:1008EC00019360BCA3FF543F30E509541FFEE49311
:1008FC00A360010ECF54C025E060A840B8E493A3D8
:10090C00FAE493A3F8E493A3C8C582C8CAC583CA02
:10091C00F0A3C8C582C8CAC583CADFE9DEE780BEBA
:01093B0000BB
:00000001FF
