:1008C9005468652053797374656D20697320527576
:1008D9006E6E696E672E2E2E0057656C636F6D659F
:1008E90020746F20584D462073797374656D21000B
:03098000010B0068
:1009230043878075985053890F438920758BF375DE
:0B0933008DF3C2ABD28ED2ACD2AF224B
:07097900AE071FEE70FA2229
:080971008F993099FDC2992213
:1008F9008B088A09890AAB08AA09A90A12093E6064
:1009090018050AE50A7002050914F912093EFF12D1
:0A09190009717FFF12097980DD22C9
:0300230002096867
:09096800309805C29885990B3204
:10088C00E50B603854F02450601424F060222420CE
:10089C00702AE50BF444F0FFE5A0440F800DE50B46
:1008AC00F4C454F0440FFFE5A044F05FF5A08009B8
:0D08BC007BFF7A0879C91208F9E4F50B22D8
:100957001209237BFF7A0879E21208F912088C80C2
:01096700FB94
:03000000020800F3
:0C080000787FE4F6D8FD75810B020847F4
:10093E00BB010689828A83E0225002E722BBFE02B7
:09094E00E32289828A83E49322EA
:10080C00020957E493A3F8E493A34003F68001F2A2
:10081C0008DFF48029E493A3F85407240CC8C333ED
:10082C00C4540F4420C8834004F456800146F6DFBC
:10083C00E4800B0102040810204080900980E47EC3
:10084C00019360BCA3FF543F30E509541FFEE493B1
:10085C00A360010ECF54C025E060A840B8E493A378
:10086C00FAE493A3F8E493A3C8C582C8CAC583CAA3
:10087C00F0A3C8C582C8CAC583CADFE9DEE780BE5B
:010983000073
:00000001FF
