:0909F200011C00011D00011B00A5
:070A3700AE071FEE70FA226A
:100A2500758901C28DD28C758AB0758C3CD2A9D2DC
:020A3500AF22EE
:10080000E51B75F00A84E5F0FD7C007F08120920E5
:100810007FFF120A37E51B75F00A84FD7C007F0715
:100820001209207FFF120A377D107C007F06120913
:10083000207FFF120A37E51D75F00A84E5F0FD7C84
:10084000007F051209207FFF120A37E51D75F00AA7
:1008500084FD7C007F041209207FFF120A377D107F
:100860007C007F031209207FFF120A37E51C75F018
:100870000A84E5F0FD7C007F021209207FFF120A46
:1008800037E51C75F00A84FD7C007F011209207F8A
:04089000FF020A3722
:03000B000209C225
:1009C200C0E0C0D0758AB0758C3C051BC3E51B9492
:1009D20014748094804014751B00051DE51D943C21
:1009E200748094804005751D00051CD0D0D0E03283
:10098D00120A2512080020B0177F64120A3720B012
:10099D000FE4F51BF51DF51C20B00512080080F8BD
:1009AD0020B1E07F64120A3720B1D8B28C20B1D3C8
:0509BD0012080080F8A3
:1009FB0012083F065B4F666D7D077F6F777C395E14
:040A0B00797140803D
:100A1000EF1FAC0670011E4C600A7D027CEFDCFE0D
:040A2000DDFC80EC8D
:010A240022AF
:10092000EF14B40800505490093575F003A4C58342
:1009300025F0C5837302097502096D020965020974
:100940005D02095902095502095102094DC2A480EC
:100950000EC2A48012C2A48016C2A4801AD2A4C25D
:10096000A3C2A28016D2A4C2A3D2A2800ED2A4D2C5
:10097000A3C2A28006D2A4D2A3D2A274082DF8E604
:0D098000F5807F017E00120A10E4F5802250
:030000000208945F
:0C089400787FE4F6D8FD75811D0208DBBA
:1008A00002098DE493A3F8E493A34003F68001F2D8
:1008B00008DFF48029E493A3F85407240CC8C33359
:1008C000C4540F4420C8834004F456800146F6DF28
:1008D000E4800B01020408102040809009F2E47EBD
:1008E000019360BCA3FF543F30E509541FFEE4931D
:1008F000A360010ECF54C025E060A840B8E493A3E4
:10090000FAE493A3F8E493A3C8C582C8CAC583CA0E
:10091000F0A3C8C582C8CAC583CADFE9DEE780BEC6
:010A0F0000E6
:00000001FF
